{
  "transactions": [
    {
      "hash": "0x97193b29012162d39bcdb70dff937f774ffb64130e911e9c85e98ee4a60e2125",
      "transactionType": "CALL",
      "contractName": "LinkToken",
      "contractAddress": "0x779877A7B0D9E8603169DdbD7836e478b4624789",
      "function": "transferAndCall(address,uint256,bytes)",
      "arguments": [
        "0x8103B0A8A00be2DDC778e6e7eaa21791Cd364625",
        "3000000000000000000",
        "0x0000000000000000000000000000000000000000000000000000000000002172"
      ],
      "transaction": {
        "type": "0x02",
        "from": "0x6b12b690fc279958715c29ad65cccb33900f0f0b",
        "to": "0x779877a7b0d9e8603169ddbd7836e478b4624789",
        "gas": "0x13fbe",
        "value": "0x0",
        "data": "0x4000aea00000000000000000000000008103b0a8a00be2ddc778e6e7eaa21791cd36462500000000000000000000000000000000000000000000000029a2241af62c0000000000000000000000000000000000000000000000000000000000000000006000000000000000000000000000000000000000000000000000000000000000200000000000000000000000000000000000000000000000000000000000002172",
        "nonce": "0xd",
        "accessList": []
      },
      "additionalContracts": [],
      "isFixedGasLimit": false
    }
  ],
  "receipts": [],
  "libraries": [],
  "pending": [
    "0x97193b29012162d39bcdb70dff937f774ffb64130e911e9c85e98ee4a60e2125"
  ],
  "returns": {},
  "timestamp": 1705730094,
  "chain": 11155111,
  "multi": false,
  "commit": "2aada48"
}